:1040000000000000000000000000000000000000B0
:1040100000000000000000000000000000000000A0
:104020000000000000000000000000000000000090
:104030000000000000000000000000000000000080
:106C14004448525953544F4E452050524F475241C5
:106C24004D2C20534F4D4520535452494E4700009C
:106C34004448525953544F4E452050524F475241A5
:106C44004D2C203127535420535452494E470000B1
:106C54004468727973746F6E652042656E63686D03
:106C640061726B2C2056657273696F6E20322E31FF
:106C740020284C616E67756167653A2043290A00D4
:106C840050726F6772616D20636F6D70696C6564BB
:106C94002077697468202772656769737465722741
:106CA400206174747269627574650A0050726F674A
:106CB40072616D20636F6D70696C656420776974AF
:106CC400686F75742027726567697374657227200D
:106CD4006174747269627574650A0000506C656150
:106CE4007365206769766520746865206E756D62CA
:106CF4006572206F662072756E73207468726F758A
:106D04006768207468652062656E63686D61726B84
:106D14003A200000457865637574696F6E2073745A
:106D2400617274732C2025642072756E73207468EC
:106D3400726F756768204468727973746F6E650A40
:106D4400000000004448525953544F4E45205052BD
:106D54004F4752414D2C2032274E44205354524920
:106D64004E4700004448525953544F4E4520505208
:106D74004F4752414D2C20332752442053545249FB
:106D84004E470000457865637574696F6E20656EC3
:106D940064730A0046696E616C2076616C75657374
:106DA400206F6620746865207661726961626C6523
:106DB40073207573656420696E207468652062654C
:106DC4006E63686D61726B3A0A000000496E745F0D
:106DD400476C6F623A202020202020202020202091
:106DE4002025640A000000002020202020202020EC
:106DF40073686F756C642062653A20202025640AEC
:106E040000000000426F6F6C5F476C6F623A202095
:106E140020202020202020202025640A00000000BB
:106E240043685F315F476C6F623A20202020202046
:106E3400202020202025630A00000000202020209C
:106E44002020202073686F756C642062653A2020CE
:106E54002025630A0000000043685F325F476C6FBF
:106E6400623A202020202020202020202025630A90
:106E7400000000004172725F315F476C6F625B38E3
:106E84005D3A2020202020202025640A00000000F4
:106E94004172725F325F476C6F625B385D5B375D76
:106EA4003A2020202025640A000000002020202011
:106EB4002020202073686F756C642062653A20205E
:106EC400204E756D6265725F4F665F52756E7320FA
:106ED4002B2031300A0000005074725F476C6F62DF
:106EE4002D3E0A0020205074725F436F6D703A206B
:106EF40020202020202020202025640A00000000DB
:106F0400202020202020202073686F756C6420626C
:106F1400653A20202028696D706C656D656E74611A
:106F240074696F6E2D646570656E64656E74290A8C
:106F340000000000202044697363723A202020205E
:106F440020202020202020202025640A000000008A
:106F54002020456E756D5F436F6D703A20202020B0
:106F6400202020202025640A000000002020496EF3
:106F7400745F436F6D703A20202020202020202051
:106F84002025640A0000000020205374725F436FC0
:106F94006D703A2020202020202020202025730AF4
:106FA40000000000202020202020202073686F751E
:106FB4006C642062653A2020204448525953544F4F
:106FC4004E452050524F4752414D2C20534F4D4572
:106FD40020535452494E470A000000004E6578740D
:106FE4005F5074725F476C6F622D3E0A00000000B0
:106FF400202020202020202073686F756C6420627C
:10700400653A20202028696D706C656D656E746129
:1070140074696F6E2D646570656E64656E74292C79
:107024002073616D652061732061626F76650A006B
:10703400496E745F315F4C6F633A2020202020201A
:10704400202020202025640A00000000496E745F7F
:10705400325F4C6F633A2020202020202020202003
:107064002025640A00000000496E745F335F4C6F92
:10707400633A202020202020202020202025640A7C
:1070840000000000456E756D5F4C6F633A20202050
:1070940020202020202020202025640A0000000039
:1070A4005374725F315F4C6F633A2020202020209C
:1070B400202020202025730A00000000202020200A
:1070C4002020202073686F756C642062653A20204C
:1070D400204448525953544F4E452050524F475222
:1070E400414D2C203127535420535452494E470AC2
:1070F400000000005374725F325F4C6F633A2020CB
:1071040020202020202020202025730A00000000B9
:10711400202020202020202073686F756C6420625A
:10712400653A2020204448525953544F4E4520502C
:10713400524F4752414D2C2032274E442053545233
:10714400494E470A000000004E756D6265725F4F3C
:10715400665F52756E733A2025640A005573657232
:107164005F54696D653A202564206379636C6573A7
:107174002C20256420696E736E0A00004379636CC9
:1071840065735F5065725F496E7374727563746979
:107194006F6E3A2025642E2564256425640A000058
:1071A4004468727973746F6E65735F5065725F5370
:1071B40065636F6E645F5065725F4D487A3A20254F
:1071C400640A0000444D4950535F5065725F4D4856
:0E71D4007A3A2025642E2564256425640A007D
:00000001FF
