:10000000378100001301C1FFEF00C0206F00000026
:10001000B767000003C70773930710046304F70072
:100020006780000083270500376700000327C77239
:1000300093879700B387E7402320F500678000008F
:10004000B767000003A6477363080600032706008E
:100050002320E50003A64773B767000083A5C77296
:100060001306C6001305A0006F001019130101FF4D
:10007000232021013769000083274973232481004D
:100080000324050003A7070083AE470003AE8700E3
:1000900003A3070183A8470103A8870183A50702DB
:1000A00003A6470283A6870223229100232611007C
:1000B0009304050003A5C70183A7C7022320E4001A
:1000C00003A70400232EA4002326F4022322D40134
:1000D000930750002324C40123286400232A140119
:1000E000232C04012320B4022322C4022324D4029B
:1000F00023A6F4002326F4002320E40013050400C3
:10010000EFF01FF4832744006380070883A70400EF
:100110008320C1000324810083AF070003AF4700A1
:1001200083AE870003AEC70003A3070183A847017E
:1001300003A8870183A5C70103A6070283A6470278
:1001400003A7870283A7C70223A0F40123A2E40127
:1001500023A4D40123A6C40123A8640023AA140164
:1001600023AC040123AEB40023A0C40223A2D40212
:1001700023A4E40223A6F4020329010083244100FE
:10018000130101016780000003A58400930760004C
:10019000930584002326F400EF00D00083274973E1
:1001A0000325C4001306C40083A707008320C100F1
:1001B000832441002320F40003248100032901004B
:1001C0009305A000130101016F001003B767000041
:1001D00083C7077337770000832647809387F7FB31
:1001E00093B71700B3E7D7002322F780B767000063
:1001F00013072004A388E77267800000B767000038
:10020000130710042388E772B777000023A2078042
:1002100067800000130101F613050003232E110867
:10022000232C8108232C8107232A910823282109C4
:10023000232631092324410923225109232061095E
:10024000232E7107232A91072328A1072326B1070C
:10025000EF00D00C9307050037640000130500037E
:100260002324F472EF00900B83278472376C000014
:10027000232AAC722320F500930720002324F500E5
:10028000B7750000930780022326F500938545C1CA
:100290002322050013050501EF005029B775000062
:1002A000938545C313050102EF0050283774000001
:1002B000374700009307A00013074701130584ED9B
:1002C000232EF764EF00500837750000130545C56D
:1002D000EF009007130584EDEF001007B7770000DB
:1002E00083A7C7C06382076A37750000130545C836
:1002F000EF009005130584EDEF0010053775000041
:10030000130505CEEF005004B7770000138587ED85
:10031000EF0090033775000093054006130585D163
:10032000EF00900213050000EF00407E93070500E8
:1003300037470000130500002328F700EF00807DF9
:10034000B767000023ACA77293041000B7690000E0
:10035000377A000037640000B76C0000376B00008C
:10036000930A1000B77B0000B7770000938587D40D
:10037000930710042388F9721305010493072004DE
:10038000A308F47223225A81EF00501A9305010446
:1003900013050102232E5101EF00807093371500E1
:1003A00013068101930530002322FA8013052000F3
:1003B00093077000232CF100EF0000648326810175
:1003C000B747000093854701130630001385CC73AF
:1003D000EF00806303254C73EFF05FC9034714738C
:1003E0009307000463FEE75813091004130D30004F
:1003F0006F004001034714739307190013F9F70FB7
:10040000636427059305300413050900EF000067B6
:100410000327C101E310E5FE9305C10113050000A8
:10042000EF00405893858BD613050104EF001010A0
:10043000034714739307190023269B7213F9F70FD0
:10044000138D0400E37027FD93171D00338DA70162
:10045000832D810113050D0093850D00EF005027BA
:1004600083C60973930710041309050013070500D9
:100470006398F6000327CB72930695003387E64016
:100480009384140093065006E390D4EE1305000005
:100490002326E100EF008067376600009306050021
:1004A000130500002322D672EF00C06693060500F4
:1004B0003775000037780000130585D82324D880CD
:1004C000B7740000EF004068138584EDEF00C0674B
:1004D00037750000130585D9EF000067138584ED9B
:1004E000EF0080668325CB7237750000130505DDAC
:1004F000B7740000EF004065930550001385C4DE1B
:10050000EF00806483254A8037750000130585E07D
:10051000EF008063930510001385C4DEEF00C06216
:1005200083C5097337750000130545E2EF00C0610C
:10053000B779000093051004138509E4EF00C0604B
:1005400083451473377500001305C5E5EF00C05FE0
:1005500093052004138509E4EF00005F938CCC73AE
:1005600083A50C0237750000130585E7EF00C05D19
:10057000930570001385C4DEEF00005DB7470000EF
:100580009387470183A5C76537750000130545E9C3
:10059000EF00805B37750000130505EBEF00C05AD4
:1005A000377500001305C5EDEF00005A83254C7325
:1005B000B7760000138586EE83A50500B77C0000A2
:1005C000B77B0000EF00405837750000130545F079
:1005D000EF00805783254C7313858CF3377B000025
:1005E00083A54500B77A0000377A0000EF00C055B8
:1005F000930500001385C4DEEF00005583254C737E
:1006000013854BF53744000083A58500B7490000EA
:10061000EF008053930520001385C4DEEF00C05225
:1006200083254C7313050BF783A5C500EF00C0515C
:10063000930510011385C4DEEF00005183254C7330
:100640001385CAF8376C000093850501EF00C04F91
:1006500013058AFAEF00404F37750000130505FEB9
:10066000EF00804E83258C72B7760000138586EEEE
:1006700083A50500EF00404D37750000130545FFC9
:10068000EF00804C83268C7213858CF383A5460083
:10069000EF00804B930500001385C4DEEF00C04AD5
:1006A00083268C7213854BF583A58600EF00C04925
:1006B000930510001385C4DEEF00004983268C7279
:1006C00013050BF783A5C600EF0000489305200132
:1006D0001385C4DEEF00404783258C721385CAF86A
:1006E00093850501EF00404613058AFAEF00C045E7
:1006F0000327C10037750000130545039305070064
:10070000EF008044930550001385C4DEEF00C04322
:10071000B307BD4113973700B307F74037750000A3
:10072000B385274113050505EF0000429305D0006E
:100730001385C4DEEF004041832581013775000039
:100740001305C506EF004040930570001385C4DE15
:10075000EF00803F8325C101377500001305850830
:10076000EF00803E930510001385C4DEEF00C03D0E
:1007700037750000930501021305450AEF00C03CE0
:10078000377500001305050CEF00003C37750000BD
:10079000930501041305850FEF00003B377500003A
:1007A00013054511EF00403AB7740000138584ED3E
:1007B000EF0080393778000037660000B747000047
:1007C000B766000083A686730327467203A6070157
:1007D00083278880377500003307C740B387D74029
:1007E000930540061305C5142326E40023A4F9004D
:1007F000EF00803503A689008325C400377500000B
:1008000013050516EF0040348327C40083A5890033
:10081000139557003305F540131525003305F500F2
:1008200013153500EF00C06A9305A000930405007E
:10083000EF004072130A05009305A0001385040021
:10084000EF0000699305A000EF00C0709309050058
:100850009305400613850400EF0080679305A00010
:10086000EF00406F130905009305803E13850400D7
:10087000EF000066930505003775000013070A00B6
:10088000938609001306090013050518EF00C02B15
:100890008325C40037E5F50513050510EF00406317
:1008A0001304050093050500377500001305451A6C
:1008B000EF00802993175400B38787409397270050
:1008C000B3878700139437009305D06D1305040098
:1008D000EF0000609305A00093040500EF0080671F
:1008E000930905009305A00013850400EF00405E06
:1008F0009305A000EF000066B7B5020013090500DC
:10090000938545E513050400EF00805C9305A00086
:10091000EF004064B7D51A0093040500938585F471
:1009200013050400EF00C05A930505003775000059
:100930001387090093060900138604001305851C1C
:10094000EF0080208320C109032481098324410909
:10095000032901098329C108032A8108832A410840
:10096000032B0108832BC107032C8107832C41072C
:10097000032D0107832DC1061301010A67800000C2
:10098000130D90006FF0DFAC37750000130505CB39
:10099000EF00801BB7770000138587EDEF00C01ACA
:1009A0006FF0DF95130720006302E5049307300022
:1009B00023A0F50093071000630CF50063F2A70273
:1009C000930740006312F50223A0E5006780000052
:1009D000B767000003A7C77293074006E3D8E7FE96
:1009E00023A00500678000006780000093071000C7
:1009F00023A0F5006780000013052500B305B500AE
:100A00002320B600678000001307560093171700D5
:100A1000B387E70093973700B387E70013162600E4
:100A20001318270093973700330505013388C70053
:100A30002320D5002322D500232CE506B38605010B
:100A400003A8060123AAE60023ACE600130718005A
:100A500023A8E60003270500B387F500B387C70086
:100A6000B7150000B387F50023AAE7FAB7670000BF
:100A70001307500023A6E772678000001375F50F77
:100A800093F5F50F6306B5001305000067800000BD
:100A9000B76700002388A772130510006780000065
:100AA000130101FF2326110037680000834725004A
:100AB00003C735000346087393060000638CE70202
:100AC000638406002308C872EF00403193070000DA
:100AD000635AA000B76700001307A00023A6E772BF
:100AE000930710008320C100138507001301010143
:100AF0006780000093061000138607006FF01FFC4C
:100B00001305E5FF1335150067800000732500C04D
:100B100067800000732520C067800000B776000062
:100B200083A706C13387A7003775000023A8E6C056
:100B30001305C580930600403385A70063D4E60003
:100B40007300100067800000130101F82320610585
:100B5000232E1104232C8104232A91042328210508
:100B6000232631052324410523225105232E710319
:100B7000232C8103232A9103130B05000345050051
:100B8000232AF106930741062322B1062324C10636
:100B90002326D1062328E106232C0107232E110743
:100BA0002326F1006300050413040000130A500219
:100BB000930B3006130C3007930C4006930AD002B7
:100BC0009309010163004507F3271080E38E07FEB8
:100BD0007310158013041400B3078B0003C50700BE
:100BE000E31205FE8320C10503248105832441050A
:100BF000032901058329C104032A8104832A4104AE
:100C0000032B0104832BC103032C8103832C410399
:100C1000130101086780000063807703638E8703F8
:100C20006386970713041400B3078B0083C707007C
:100C3000E39407FE6FF01FFA8327C10003A70700A4
:100C4000938747002326F100F3271080E38E07FEE9
:100C5000731017806FF01FF88327C10083A6070069
:100C6000938747002326F10003C70600E30407F635
:100C7000F3271080E38E07FE7310178003C716005A
:100C800093861600E31607FE6FF0DFF48327C1009A
:100C900083A40700938747002326F10063CC040454
:100CA000138909006F004002EF00C02A9307050373
:100CB0002300F900138504009305A000EF004021F4
:100CC00013091900930405009305A000138504007F
:100CD000E39C04FCE30A39FD0347F9FF1309F9FF1C
:100CE000F3271080E38E07FE73101780E31639FF99
:100CF0006FF05FEEF3271080E38E07FE73901A808B
:100D0000B30490406FF0DFF9630006023306C500BC
:100D10009307050003C70500938717009385150007
:100D2000A38FE7FEE318F6FE678000009307050037
:100D30006F00800103C70500938717009385150096
:100D4000A38FE7FE6304070833E7F5001377370046
:100D5000E31207FE83A60500B708FFFE9388F8EFAD
:100D60003387160113C6F6FF3788808013080808FA
:100D70003377C700337707016314070223A0D70036
:100D800083A6450093874700938545003387160166
:100D900013C6F6FF3377C70033770701E30007FE7A
:100DA0002380D70013F7F60F6302070213D78600DC
:100DB000A380E7001377F70F630A070013D7060134
:100DC0002381E7001377F70F6314070067800000A3
:100DD00093D68601A381D700678000006F00C00111
:100DE0008347050003C7050013051500938515000B
:100DF0006392E706638C0704B3E7A50093F7370017
:100E0000E39007FE8327050003A70500639CE70422
:100E10003706FFFEB78680801306F6EF9386060836
:100E20006F0000018327050003A70500639CE7020C
:100E30003387C70093C7F7FFB377F700B3F7D7003F
:100E40001305450093854500E38E07FC130500005C
:100E5000678000001305F0FFE3ECE7FE13051000C8
:100E60006780000093F6F70F1376F70F639AC604B6
:100E700013050000E38E06FC93D687001356870007
:100E800093F6F60F1376F60F639CC602E38206FC18
:100E900093D607011356070193F6F60F1376F60F54
:100EA0006390C602E38606FA93D78701135787013A
:100EB000E380E7FA13051000E3FCE7F86F00C000D9
:100EC00013051000E3F6C6F81305F0FF6780000075
:100ED0006340050663C605061386050093050500F5
:100EE0001305F0FF630C060293061000637AB60048
:100EF0006358C0001316160093961600E36AB6FEF8
:100F00001305000063E6C500B385C5403365D50011
:100F100093D6160013561600E39606FE678000006F
:100F200093820000EFF05FFB1385050067800200ED
:100F30003305A04063D80500B305B0406FF0DFF97A
:100F4000B305B04093820000EFF01FF93305A040D5
:100F5000678002009382000063CA0500634C0500AD
:100F6000EFF09FF71385050067800200B305B040DE
:100F7000E35805FE3305A040EFF01FF63305B040FF
:040F80006780020084
:00000001FF
